:030000000200BA41
:0C00BA00787FE4F6D8FD75812B0201016F
:10017A000208000020200A008000C000E000F00011
:10018A00FF00F000E000C0008000400020001000E6
:0B019A0000001000200040022A0001BD
:10000300E52B6401452A60030200B920870B7508BC
:100013000075090C12014680F220860B75080075E5
:10002300090D12014680F220850B75080075090E33
:1000330012014680F220840B75080075090F120126
:100043004680F220830B7508007509101201468063
:10005300F220820B75080075091212014680F22006
:10006300810B75080075091312014680F220800B7D
:1000730075080075091412014680F220900B75086B
:100083000075091512014680F220910B7508007561
:10009300091612014680F220920B750800750918A3
:1000A30012014680F23093030200037508007509BC
:0700B3001A12014680EF2242
:04014600AF09AE0847
:10014A00E4FDFCED25E0240AF808E6F5A0E4FBFA54
:10015A00C3EB9FEE6480F8EA64809850070BBB00FB
:0F016A00010A80EC0DBD00010CED64104C70D447
:010179002263
:1000C600020003E493A3F8E493A34003F68001F24D
:1000D60008DFF48029E493A3F85407240CC8C3333B
:1000E600C4540F4420C8834004F456800146F6DF0A
:1000F600E4800B010204081020408090017AE47E1F
:10010600019360BCA3FF543F30E509541FFEE493FE
:10011600A360010ECF54C025E060A840B8E493A3C5
:10012600FAE493A3F8E493A3C8C582C8CAC583CAF0
:10013600F0A3C8C582C8CAC583CADFE9DEE780BEA8
:0101A5000059
:00000001FF
